:020000040800F2
:1000000000200020590400084503000847030008A9
:1000100000000000000000000000000000000000E0
:10002000000000000000000000000000490300087C
:1000300000000000000000004B0300084D03000812
:10004000A904000800000000A9040008A904000891
:10005000A9040008A9040008A9040008A9040008CC
:1000600000000000A9040008A9040008A904000871
:10007000A9040008A9040008A90400080000000061
:10008000A9040008A904000800000000A904000851
:10009000A9040008A9040008A9040008A90400088C
:1000A000A9040008A9040008A9040008A90400087C
:1000B000A90400080000000000000000000000008B
:1000C000002243088B4274D303098B425FD3030A97
:1000D0008B4244D3030B8B4228D3030C8B420DD3AA
:1000E000FF22090212BA030C8B4202D31212090238
:1000F00065D0030B8B4219D300E0090AC30B8B4276
:1001000001D3CB03C01A5241830B8B4201D38B0323
:10011000C01A5241430B8B4201D34B03C01A5241C8
:10012000030B8B4201D30B03C01A5241C30A8B420B
:1001300001D3CB02C01A5241830A8B4201D38B02F6
:10014000C01A5241430A8B4201D34B02C01A52419A
:10015000030A8B4201D30B02C01A5241CDD2C3090C
:100160008B4201D3CB01C01A524183098B4201D388
:100170008B01C01A524143098B4201D34B01C01A73
:10018000524103098B4201D30B01C01A5241C308EB
:100190008B4201D3CB00C01A524183088B4201D35A
:1001A0008B00C01A524143088B4201D34B00C01A46
:1001B0005241411A00D20146524110467047FFE7B2
:1001C00001B5002000F006F802BDC0460029F7D0B6
:1001D00076E770477047C04610B5064C2378002B71
:1001E00007D1054B002B02D0044800E000BF0123DB
:1001F000237010BD0400002000000000040500086A
:10020000044B10B5002B03D00349044800E000BFA5
:1002100010BDC046000000000800002004050008D2
:1002200010B5194A136801218B431360164B1B68E4
:10023000DB07FBD4154A136801210B431360134BF2
:100240001B689B07FBD5114B1A68F8218A43783944
:100250000A431A605A6870318A435A605A680C49D6
:100260000A405A605A6803218A435A60074B5B6808
:100270000C221A42FAD1074C200000F0C1F82000ED
:1002800000F0E2F810BDC04600200240001002401D
:10029000FFF8FFFF00127A0030B583B0104B996968
:1002A00001221143996199690A400192019ADA6920
:1002B000802149050A43DA61DB690B400093009B0A
:1002C000FFF7AEFF00F010F8064C4025A5611420A2
:1002D00000F0A6F8A562C82000F0A2F8F4E7C04636
:1002E000001002400008004800B589B01822002123
:1002F00002A800F0FFF8114B596980200003014368
:1003000059615A6902400192019A5A698021890211
:100310000A435A615B690B400093009B08484023E5
:10032000836102933F3B0393002304930593069359
:1003300002A900F00CF809B000BDC0460010024050
:1003400000080048FEE7FEE7704770477047F0B5C9
:10035000002227E083682C006C4366003619B34303
:100360008E687443234383600C684368A343CE685C
:10037000744323434360C6682B006B435F00FF1840
:10038000FC43A446BE430F695F433E43C6604C68CE
:10039000022C16D0046865462C404D686B432343FD
:1003A000036001320C682300D34026D00123934020
:1003B00025001D401C42F4D04B68013B012BDAD8CC
:1003C000C8E7FF2D0BD8066A1C006C4365432C015F
:1003D000641BA6434C69654335430562DAE7466A08
:1003E0002D0A2C006C436C4365432C01641BA6430F
:1003F0004C69654335434562CCE70020F0BD000001
:1004000010B5FA218900FFF75BFE0138034B5860F5
:1004100000229A6005321A6010BDC04610E000E06C
:1004200082B0084B1B680193019B431C00D0013034
:10043000002805D0034B1B68DB03F9D50138F7E72B
:1004400002B0704710E000E0014B18607047C046F2
:1004500000000020704700000D4885460D480E49F9
:100460000E4A002302E0D458C4500433C4188C420E
:10047000F9D30B4A0B4C002301E013600432A24273
:10048000FBD3FFF7E7FF00F011F8FFF705FFFEE7EA
:1004900000200020000000200400002024050008A7
:1004A0000400002020000020FEE7000070B50026B8
:1004B0000C4D0D4C641BA410A64209D1002600F07F
:1004C00021F80A4D0A4C641BA410A64205D170BD48
:1004D000B300EB5898470136EEE7B300EB58984766
:1004E0000136F2E71C0500081C0500081C05000881
:1004F0002005000803008218934200D1704719704C
:100500000133F9E7F8B5C046F8BC08BC9E46704711
:0C051000F8B5C046F8BC08BC9E46704719
:04051C0001020008D0
:04052000D9010008F5
:0405240000127A0047
:040000050800045992
:00000001FF
